:100000000C944A000C9467000C9467000C946700F1
:100010000C9467000C9467000C9467000C946700C4
:100020000C9467000C9467000C9467000C946700B4
:100030000C9467000C9467000C9467000C946700A4
:100040000C9467000C9467000C9467000C94670094
:100050000C9467000C9467000C9467000C94670084
:100060000C9467000C946700506F6D696172792081
:1000700054656D70657261747572792E0A00506FE7
:100080006D696172792054656D7065726174757205
:10009000792E0A0011241FBECFEFD8E0DEBFCDBFFE
:1000A00011E0A0E0B1E0E8EEF8E002C005900D92AA
:1000B000A430B107D9F721E0A4E0B1E001C01D925E
:1000C000A531B207E1F70E94B9030C9472040C94B5
:1000D00000000E94EE0260E081E00E94CA0281E01E
:1000E0000E94E80260E086E00E94CA0281E00E946D
:1000F000E80260E08CE00E94CA0281E00C94E80211
:10010000CF93C82F809105018823A9F0CA30A9F0A8
:100110008091040181110CC081E00E94E80260E03E
:1001200081E00E94CA0281E00E94E802109205016B
:1001300061E08C2F0BC0CA30D9F780910401811186
:100140000BC081E08093040160E080EC0E94CA0251
:1001500081E0CF910C94E80281E080930501109238
:100160000401CF910895CF93DF93EC01FE018491B8
:10017000811103C0DF91CF9108950E9480002196E4
:10018000F5CF6295660F660F607C860F60E0806831
:100190000E94CA0281E00C94E80260E081E00E94C3
:1001A000CA0280E00C94E8020F931F93CF93DF9371
:1001B000EB01880F880F880F887360E080640E94CD
:1001C000CA0280E00E94E8028E01085F1F4FFE0114
:1001D000849161E00E94CA0280E00E94E8022196B8
:1001E000C017D107A1F7DF91CF911F910F9108950B
:1001F000FC01808191810895CF93DF93EC0183E32B
:100200000E944D03BE0188E00E9475030E943203E4
:100210008CEC0E944D0384E40E944D030E94AC03C9
:1002200087E795E00197F1F700C00000309B10C010
:100230000E9432038CEC0E944D038EEB0E944D0312
:10024000BE01685F7F4F82E0DF91CF910C94750310
:10025000DF91CF910895E4ECF0E011821082549A7E
:1002600020EC2093C20028E12093C1009183808379
:1002700008959091C00095FFFCCF8093C6008091B7
:10028000C00087FFFCCF8091C6000895EF92FF92D7
:100290000F931F93CF93DF937C010E94FC0010E02B
:1002A00000E020E030E040E060E084E80E941002DE
:1002B000D0E0C0E080E0C330D10520F4F701EC0FBE
:1002C000FD1F80850E9439012196C11581E0D80764
:1002D00089F780E0DF91CF911F910F91FF90EF9010
:1002E0000C94E701EF92FF920F931F93CF93DF934C
:1002F0007C0110E000E020E030E040E061E084EDCF
:100300000E941002D0E0C0E080E0C330D10580F050
:100310000E9439012196C11581E0D807A9F780E034
:10032000DF91CF911F910F91FF90EF900C94E70117
:100330000E943901F701EC0FFD1F8087EBCF0F936F
:100340001F93CF93DF9300D0CDB7DEB78C010E940F
:10035000720180E889838A83F801008511854AE06B
:10036000BE016F5F7F4FC80124E0959587952A9560
:10037000E1F70E943D0489810E9480008A810E94E9
:1003800080008EE20E9480000F70112721E732E08A
:10039000029FC001039F900D129F900D112464E6EF
:1003A00070E00E94FA03CB014AE0BE016F5F7F4F0D
:1003B0000E943D0489810E9480008A810E94800001
:1003C0000F900F90DF91CF911F910F9108958111A0
:1003D00002C05D9A08955D980895FF920F931F9350
:1003E000CF93DF93C82FF62E172F042F81E00E94A2
:1003F000E7018C2F0E943901CF2DD12F0C0F1D2F1B
:10040000111DC017D10739F45D9ADF91CF911F916B
:100410000F91FF90089580E00E9439018993F1CFF8
:10042000CF92DF92EF92FF920F931F93CF93C82F3B
:10043000F62E6901E42E873C91F0842FB90120E269
:1004400034E040E00E940E046B01E82E9BE0CC0CEF
:10045000DD1CEE1C9A95D9F7C22AD32AE42A81E042
:100460000E94E7018C2F0E9439018E2D0E943901D4
:100470008D2D0E9439018C2D0E943901D12CC12C67
:10048000EF2CF12CCE14DF046CF081E0012B09F08D
:1004900080E0CF911F910F91FF90EF90DF90CF9070
:1004A0000C94E70180E00E9439018FEFC81AD80A46
:1004B000E9CF6F927F928F92CF92DF92EF920F935C
:1004C0001F93CF93DF93EA013801822E10E000E002
:1004D0009B01482F61E08BE00E941002C12CD12CBF
:1004E000E12CC614D704E80461F45D9ADF91CF9142
:1004F0001F910F91EF90DF90CF908F907F906F9032
:10050000089580E00E94390189938FEFC81AD80AB4
:10051000E80AE7CFCF93DF931F92CDB7DEB741E074
:10052000BE016F5F7F4F87ED0E94ED01898184FFDF
:10053000F6CF0F90DF91CF9108955B98662379F005
:100540005A9A98B1937C44E0849F90011124892F9A
:10055000822B88B95E9A00C000C05E9808955A98B0
:10056000F0CF5B9A97B1937C97B9882389F05A9A18
:100570005E9A00C000C086B15E9897B19C6397B93F
:100580005B9890E095958795959587958F700895E0
:100590005A98EECFCF93DF93C82FD62F82958F70C6
:1005A0000E949D026D2F8C2F8F70DF91CF910C9444
:1005B0009D02CF93DF93C82F0E94B102D82FD2950E
:1005C000D07F8C2F0E94B1028D2BDF91CF910895A7
:1005D00080E00E94D90287FDFBCF0895529A539A7A
:1005E000569A87B18C6387B98FE295E70197F1F747
:1005F00000C0000060E083E00E949D0287E090E27E
:100600000197F1F700C0000060E083E00E949D02C6
:1006100087EC90E00197F1F700C0000060E083E014
:100620000E949D0292E69A95F1F700C060E082E098
:100630000E949D0280E00E94E80260E088E20E9441
:10064000CA0280E00E94E80260E088E00E94CA02DC
:1006500080E00C94E80288B1837C88B95A985B9852
:100660005E9808953898409887EE93E00197F1F7E7
:1006700000C00000389A40988BEA93E00197F1F7A8
:1006800000C000003898409887E592E00197F1F7A4
:1006900000C0000086B18170089530E020E090E055
:1006A000AC01022E02C0559547950A94E2F7389A9C
:1006B000409840FF10C04AE14A95F1F700C03898D1
:1006C00040984AEB4A95F1F700C02F5F3F4F283022
:1006D000310531F708954AEB4A95F1F700C0389893
:1006E00040984AE14A95F1F7EFCFCF93DF9340E08E
:1006F00090E0C1E0D0E0E42F042E000CFF0BE817DF
:10070000F9071CF0DF91CF910895E60FF71F1082D3
:1007100030E020E0389A40985DE05A95F1F700000B
:100720003898409852E15A95F1F700C0309B09C0C3
:100730005081DE01022E01C0AA0F0A94EAF75A2B5B
:1007400050835AEB5A95F1F700C02F5F3F4F283086
:10075000310501F74F5FCFCF389A40988AE18A95EB
:10076000F1F700C0389840988AEB8A95F1F700C0FD
:1007700008950E9469008EE790E00E94B3000E94F5
:100780003203882321F086E091E00E94FC00579814
:100790005F9A559A8CE291E00E942B0144E061E15E
:1007A00071E08FE90E94ED0141E060E171E087EDC9
:1007B0000E94ED018FE39CE90197F1F700C0000072
:1007C00086E091E00E9446014F99F4CF8FEC97E0CC
:1007D0000197F1F700C000000E94CD0088E690E08C
:1007E0000E94B30086E091E00E949F018FED0E947D
:1007F0008000E0CF97FB072E16F4009407D077FD1A
:1008000009D00E94290407FC05D03EF490958195FB
:100810009F4F0895709561957F4F089559E1AA27DC
:10082000991B0AC0111CAA1F991F1216A30794072F
:1008300018F0121AA30B940B661F771F881F5A9586
:1008400089F7609570958095212D3A2F492F1124B5
:100850000895AA1BBB1B51E107C0AA1FBB1FA61707
:10086000B70710F0A61BB70B881F991F5A95A9F759
:1008700080959095BC01CD010895BB274A3031F495
:10088000992322F4BDE2909581959F4F0C944904E1
:10089000BB27FB015527AA27880F991FAA1FA4175A
:1008A00010F0A41B83955051B9F7A05DAA3308F04E
:1008B000A95DA193009779F7B111B1931192CB0182
:1008C0000C946204DC01FC01672F71917723E1F73E
:1008D000329704C07C916D9370836291AE17BF070D
:0808E000C8F30895F894FFCF5E
:0408E80000200400E8
:00000001FF
